:020000040800F2
:1000000000500020ED110008811100088311000844
:100010008511000887110008891100080000000000
:100020000000000000000000000000008B1100082C
:100030008D110008000000008F11000891110008C8
:100040003512000835120008351200083512000874
:100050003512000835120008351200083512000864
:100060003512000835120008351200083512000854
:100070003512000835120008351200083512000844
:100080003512000835120008351200083512000834
:100090003512000835120008351200083512000824
:1000A0003512000835120008351200083512000814
:1000B0003512000835120008351200083512000804
:1000C00035120008351200083512000835120008F4
:1000D0003512000835120008351200089511000885
:1000E0003512000835120008351200080000000023
:1000F0000000000000000000000000000000000000
:0C01000000000000000000005FF808F1A3
:10010C0010B5054C237833B9044B13B10448AFF345
:10011C0000800123237010BDDC01002000000000D2
:10012C005C2F000808B5034B1BB103490348AFF320
:10013C00008008BD00000000E00100205C2F0008DA
:10014C0038B50E4B054618784FF47A73B3FBF0F3C1
:10015C000B4A1068B0FBF3F000F08CF8044658B969
:10016C000F2D09D8024629464FF0FF3000F042F817
:10017C00044B20461D6038BD012038BD0000002016
:10018C000800002004000020074A08B5136803206B
:10019C0043F01003136000F01BF80020FFF7D0FFB2
:1001AC0000F082FF002008BD00200240034A044BEF
:1001BC0011681B780B441360704700BF04020020C9
:1001CC0000000020014B1868704700BF040200209B
:1001DC00074A0002D36800F4E06023F4E0631B04D8
:1001EC001B0C43F0BF6343F400330343D3607047ED
:1001FC0000ED00E0174B30B5DC68C4F30224C4F109
:10020C000703251D042B28BF0423062D4FF00105E1
:10021C0098BF002405FA03F303F1FF3388BF033CB6
:10022C001940A14005FA04F4013C2240002842EA9E
:10023C0001024FEA0212AFBF00F16040064B00F022
:10024C000F00D2B2A5BFD2B200F561401A5480F8AB
:10025C00002330BD00ED00E014ED00E00123420965
:10026C0000F01F0003FA00F0014B43F82200704726
:10027C0000E100E00138B0F1807F0AD2F021064B9A
:10028C00064A586082F823100020072298601A60F2
:10029C0070470120704700BF10E000E000ED00E067
:1002AC0090F8213010B5022B03D004238363012076
:1002BC0010BD03681A6822F00E021A601A6822F048
:1002CC0001021A60184A93421FD0143293421ED076
:1002DC00143293421DD0143293421DD014329342E7
:1002EC001DD0143293420CBF4FF480134FF0807327
:1002FC000E4A00245360012380F82130436B80F8B0
:10030C0020407BB19847204610BD0123F0E7102315
:10031C00EEE74FF48073EBE74FF48053E8E74FF4CC
:10032C008033E5E7184610BD08000240000002408B
:10033C002DE9F74F00221646654BDFF8A4E1DFF8F4
:10034C00A4C14FF001080C6808FA06F808EA040486
:10035C00A0457FD14D68122D00F0AF8000F288804F
:10036C00022D00F0A7807CD8002D00F08E80012D8E
:10037C0000F09E804FF00F09FF2C93BF824606F1D0
:10038C008045083DD0F800B092BFB500D0F804B05D
:10039C00AD0009FA05F82BEA080802FA05F588BF42
:1003AC0000F1040A48EA0505CAF80050D1F804A087
:1003BC001AF0805F4ED0474D464FAD6926F00308CA
:1003CC0045F00105BD61BD6908F1804805F00105E6
:1003DC00019508F5803806F0030B019D4FEA8B0B55
:1003EC00D8F8085009FA0BF925EA09093A4DA84240
:1003FC0068D005F58065A84266D005F58065A842F1
:10040C0064D005F58065A8420CBF0325042505FAC8
:10041C000BF545EA0905C8F808501D681AF4803F29
:10042C0014BF2543A5431D605D681AF4003F14BF3B
:10043C002543A5435D609D681AF4801F14BF2543B6
:10044C00A5439D60DD681AF4001F14BF2C4325EAF8
:10045C000404DC600136102E7FF473AF03B0BDE8EA
:10046C00F08F032D22D0112D84D1CA68043281E77C
:10047C001A4FBD4209D012D8DFF86C904D4504D00C
:10048C0009F580394D457FF475AF8A68C2B1012AF0
:10049C000CBFC0F81080C0F8148008226AE77545BC
:1004AC00F3D06545F1D0DFF84490EBE7002261E72B
:1004BC00CA685FE7CA6808325CE7CA680C3259E759
:1004CC00042257E70025A2E70125A0E702259EE7B5
:1004DC0000040140001002400008014000002110FF
:1004EC00000031100000321000001110000022102A
:1004FC0003682DE9F341DB07054610D42B689F07F1
:10050C005ED42B68190700F195802B685A0700F10F
:10051C00BF80EA69002A40F02D81002014E0904C45
:10052C00636803F00C03042B07D0636803F00C031F
:10053C00082B0CD16368DE0309D523689C03DDD539
:10054C006B68002BDAD1012002B0BDE8F0816B683A
:10055C00B3F5803F10D1236843F480332360FFF759
:10056C0031FE064623689803C8D4FFF72BFE801B88
:10057C006428F7D90320E7E79BB9236823F4803379
:10058C002360236823F480232360FFF71BFE0646B9
:10059C0023689903B2D5FFF715FE801B6428F7D9A1
:1005AC00E8E7B3F5A02F236803D143F4802323603D
:1005BC00D1E723F480332360236823F48023CDE731
:1005CC00674C636813F00C0F07D0636803F00C03DF
:1005DC00082B10D16368DA030DD423689B0702D56E
:1005EC002B69012BAFD123686A6923F0F80343EA26
:1005FC00C203236085E72A695A4B6AB101221A604B
:10060C00FFF7E0FD064623689F07ECD4FFF7DAFD01
:10061C00801B0228F7D9ADE71A60FFF7D3FD064619
:10062C00236898077FF56DAFFFF7CCFD801B022880
:10063C00F6D99FE7AA694A4C4B4BDAB101221A60F2
:10064C00FFF7C0FD0646636A9B070DD54FF4FA52BF
:10065C00464B1B68B3FBF2F3019300BF019B5A1E80
:10066C000192002BF9D150E7FFF7ACFD801B02285B
:10067C00E9D97FE71A60FFF7A5FD0646636A9F0775
:10068C007FF543AFFFF79EFD801B0228F6D971E77B
:10069C00334CE369D80024D40127E36943F0805339
:1006AC00E361E36903F080530093009B304E3368A1
:1006BC00D90518D5EB68012B26D1236A43F0010329
:1006CC002362FFF77FFD41F288368046236A9B0741
:1006DC003FD5002F3FF41DAFE36923F08053E36156
:1006EC0017E70027E2E7336843F480733360FFF7C2
:1006FC0069FD80463368DA05DCD4FFF763FDA0EBB7
:10070C0008006428F6D935E7ABB9236A41F288387A
:10071C0023F001032362236A23F004032362FFF70F
:10072C0051FD0646236A9807D3D5FFF74BFD801B76
:10073C004045F7D91EE7052B236A03D143F0040388
:10074C002362BAE723F001032362236A23F0040334
:10075C00B6E7FFF737FDA0EB0800B042B6D909E7C2
:10076C000010024000004242800442420800002077
:10077C0000700040224C636803F00C03082B3FF41C
:10078C00E2AE00231F4E022A33602BD1FFF71AFD75
:10079C000746236899011FD42B6AB3F5803F05D116
:1007AC006268A96822F400320A436260696A62686E
:1007BC000B4322F474121343636001233360FFF77D
:1007CC0001FD054623689A013FF5A7AEFFF7FAFC39
:1007DC00401B0228F6D9CDE6FFF7F4FCC01B02281B
:1007EC00D7D9C7E6FFF7EEFC054623689B017FF5DA
:1007FC0094AEFFF7E7FC401B0228F6D9BAE600BF1F
:10080C00001002406000424230B5194B87B002AC78
:10081C0003F11005224618685968083303C2AB422D
:10082C001446F7D101238DF80430022311498DF8B9
:10083C0005304B6803F00C02082A17D1C3F383422E
:10084C0006A80244DB0312F8102C0CD54B680A489E
:10085C00C3F34043504306AA134413F8143CB0FBB3
:10086C00F3F007B030BD05485043FAE70248F8E70B
:10087C00742F00080010024000127A0000093D009D
:10088C00544A2DE9F0411368054603F007038B42E7
:10089C000E462AD329688C0734D4CA0747D44D4A4C
:1008AC00136803F007039E42C0F082802A684A4C0A
:1008BC0012F0040F40F08780130706D563682A698D
:1008CC0023F4605343EAC2036360FFF79DFF636840
:1008DC00424AC3F30313D35CD840414B1860002049
:1008EC00FFF72EFC0020BDE8F081136823F007030E
:1008FC000B431360136803F007039942CAD001201D
:10090C00BDE8F081344B11F0040F1EBF5A6842F45D
:10091C00E0625A60080742BF5A6842F460525A605B
:10092C005A68A86822F0F00202435A60B5E76A6878
:10093C00294C012A23681CD113F4003FDFD06368D3
:10094C0041F2883823F0030313436360FFF73AFC4A
:10095C006B680746012B14D1636803F00C03042B5E
:10096C009DD0FFF72FFCC01B4045F5D90320BDE8F7
:10097C00F081022A02D113F0007FDFE713F0020F9F
:10098C00DCE7022B0FD1636803F00C03082B86D035
:10099C00FFF718FCC01B4045F5D9E7E7FFF712FC41
:1009AC00C01B4045E2D8636813F00C0FF6D176E714
:1009BC00136823F0070333431360136803F0070332
:1009CC009E429CD172E76368E96823F4E0630B43B1
:1009DC00636071E70020024000100240BD2F000848
:1009EC0008000020044B054A5B68C3F30223D35C68
:1009FC00034A1068D840704700100240CD2F000801
:100A0C0008000020044B054A5B68C3F3C223D35C87
:100A1C00034A1068D840704700100240CD2F0008E0
:100A2C00080000200368DA6822F49072DA605A69D0
:100A3C0022F001025A61202380F83A3070470000FE
:100A4C002DE9F0470568C2682B69016923F440530E
:100A5C0013432B618368EA680B43416922F4B0525B
:100A6C0022F00C020B431343EB606B69826923F495
:100A7C00407313436B61404B81469D424FF0190408
:100A8C0046D1FFF7BFFF04FB00F3D9F804604FF029
:100A9C006408B600B3FBF6F3B3FBF8F31E01FFF7E3
:100AAC00B1FF6043D9F804309B00B0FBF3F7FFF7BC
:100ABC00A9FF6043D9F804309B00B0FBF3F3B3FB00
:100ACC00F8F308FB13731B013233B3FBF8F303F099
:100ADC00F007FFF797FF6043D9F804209200B0FBB2
:100AEC00F2FAFFF78FFF6043D9F804309B00B0FB9C
:100AFC00F3F3B3FBF8F308FB13A31B013233B3FB83
:100B0C00F8F303F00F033B433344AB60BDE8F087CD
:100B1C00FFF768FF04FB00F3D9F804604FF064089A
:100B2C00B600B3FBF6F3B3FBF8F31E01FFF75AFF65
:100B3C006043D9F804309B00B0FBF3F7FFF752FF8A
:100B4C006043D9F804309B00B0FBF3F3B3FBF8F32C
:100B5C0008FB13731B013233B3FBF8F303F0F007FC
:100B6C00FFF740FF6043D9F804209200B0FBF2FA83
:100B7C00FFF738FFB7E700BF00380140F8B504466F
:100B8C000E4617461D4621680B6836EA030301D151
:100B9C000020F8BD6B1CF7D095B923680320DA68E8
:100BAC0022F4D072DA605A6922F001025A612023D1
:100BBC0084F8393084F83A30002384F83830F8BDA2
:100BCC00FFF700FBC01B8542DDD2E6E710B50446FB
:100BDC0040B390F8393003F0FF021BB980F838208D
:100BEC0000F084FA2423226884F83930D368204634
:100BFC0023F40053D360FFF723FF236800201A6906
:100C0C0022F490421A615A6922F02A025A61DA6877
:100C1C0042F40052DA602023E06384F8393084F81F
:100C2C003A3010BD012010BD2DE9F0411F4690F85F
:100C3C0039300446202B0D4690464ED1002949D020
:100C4C00002A47D090F83830012B46D0012380F889
:100C5C0038300023C363212380F83930FFF7B2FA10
:100C6C000646A4F82480A4F82680E38C9BB26BB9CA
:100C7C003B46324640212046FFF780FFA8B920238F
:100C8C0084F8380084F83930BDE8F081E38C3246C2
:100C9C00013B9BB2E384A3688021B3F5805F2046BF
:100CAC003B460ED1FFF76AFF10B10320BDE8F0817F
:100CBC002B882268C3F308035360236943B90235B8
:100CCC00D3E7FFF75BFF0028EFD123682A785A603F
:100CDC000135CAE70120BDE8F0810220BDE8F081B2
:100CEC002DE9F0411F4690F83A300446202B0D4672
:100CFC00904651D100294CD0002A4AD090F8383077
:100D0C00012B49D0012380F838300023C363222300
:100D1C0080F83A30FFF756FA0646A4F82C80A4F86F
:100D2C002E80E08D80B230B9202384F8380084F80E
:100D3C003A30BDE8F081E38D3246013B9BB2E3854E
:100D4C00A3682021B3F5805F20463B4612D1FFF704
:100D5C0015FF10B10320BDE8F081236822695B68A0
:100D6C0022B9C3F3080325F8023BDAE7DBB225F816
:100D7C00013BD6E7FFF702FF0028EBD1236821697E
:100D8C006A1C5B6811B92B701546CAE703F07F0328
:100D9C00F9E70120BDE8F0810220BDE8F081704741
:100DAC00704790F83A3010B5222B36D18368016920
:100DBC00B3F5805F0268836A23D15268E9B9C2F344
:100DCC00080223F8022B8362C48D013CA4B2C485B3
:100DDC008CB90368DA6822F02002DA60DA6822F44F
:100DEC008072DA605A6922F001025A61202380F87D
:100DFC003A30FFF7D5FF002010BDD2B223F8012BFB
:100E0C00E1E721B9591C526881621A70DCE752681B
:100E1C00591C816202F07F02F7E7022010BD704777
:100E2C00036870B51A6804461607D9685D6907D15E
:100E3C0096065AD58D0658D5BDE87040FFF7B1BF60
:100E4C0015F0010502D111F4907F4ED0D30705D5D2
:100E5C00CE0542BFE36B43F00103E363500704D5B7
:100E6C001DB1E36B43F00203E363930704D51DB19B
:100E7C00E36B43F00403E363160704D51DB1E36B86
:100E8C0043F00803E363E36B002B66D0950604D5AF
:100E9C00880602D52046FFF784FF236820465D694B
:100EAC00E26B110702D415F040051AD0FFF7BAFD1A
:100EBC0023685A69520610D55A69606B22F04002B9
:100ECC005A6150B1254B4363FFF7EAF9002844D02F
:100EDC00606BBDE87040436B18472046FFF79FFFDF
:100EEC0070BDFFF79CFFE56370BD160627D50D0698
:100EFC0025D594F83920212A2FD1A268B2F5805F2C
:100F0C00226A17D11188C1F308015960216979B996
:100F1C0002322262E28C013A92B2E284EAB9DA68D5
:100F2C0022F08002DA60DA6842F04002DA6070BDCA
:100F3C000132EEE7511C216212785A60EAE7500642
:100F4C000BD54A0609D5DA68204622F04002DA6051
:100F5C00202384F83930FFF722FF70BD6D0F000895
:100F6C0008B50023406AC385C384FFF758FF08BD4A
:100F7C0010B54FF6FF731446044892B2FFF754FEB7
:100F8C0000280CBF2046002010BD00BF0802002026
:100F9C0010B514465AB14FF0FF3392B20548FFF723
:100FAC009FFE00280CBF20464FF0FF3010BD1046AE
:100FBC0010BD00BF0802002000B591B0282200210E
:100FCC0006A800F057F91422002101A800F052F9EC
:100FDC000223069301230A93102306A80B93FFF711
:100FEC0087FA00210F2301A8019302910391049128
:100FFC000591FFF745FC11B05DF804FB1FB5FFF739
:10100C00C3F8FFF7D9FF214B00249A69204842F01E
:10101C0020029A619A691F4E02F020020192019AF5
:10102C009A691D4D42F008029A619A6902F0080211
:10103C000292029A9A6942F004029A619B69174AD9
:10104C0003F004030393039B4FF4165380E81C0036
:10105C000C23C460046143618461C461FFF7B6FD75
:10106C000F4B2146186802222346406800F09EF977
:10107C000C4C304600F07AF96946284600F07EF9AF
:10108C000099204600F0FEF8F3E700BF0010024084
:10109C0008020020902F0008AA2F000800480040EA
:1010AC000C000020AD2F00080E4B82B09A6942F064
:1010BC0001029A619A6902F001020092009ADA69BF
:1010CC0042F08052DA61DB69074A03F080530193E6
:1010DC00019B536823F0E06343F00073536002B04C
:1010EC00704700BF001002400000014010B50446DC
:1010FC0086B01022002102A800F0BCF822681B4B1D
:10110C009A4230D103F5E433DA6902A942F4802221
:10111C00DA61DA69164802F480220092009A9A6920
:10112C00002442F008029A619B6903F008030193C2
:10113C00019B4FF4806302930223039303230593D3
:10114C00FFF7F6F84FF4006302A9094802930394E1
:10115C000494FFF7EDF8272022462146FFF74AF8C2
:10116C002720FFF77BF806B010BD00BF00480040F9
:10117C00000C01407047FEE7FEE7FEE7FEE7704714
:10118C0070477047FFF712B80148FFF749BE00BF20
:10119C00080200200F4B1A6842F001021A605968CD
:1011AC000D4A0A405A601A6822F0847222F4803286
:1011BC001A601A6822F480221A605A6822F4FE021D
:1011CC005A604FF41F029A604FF00062034B9A6012
:1011DC00704700BF001002400000FFF800ED00E077
:1011EC00002103E00B4B5B58435004310A480B4B76
:1011FC0042189A42F6D30A4A02E0002342F8043B12
:10120C00084B9A42F9D3FFF7C5FF00F00FF8FFF730
:10121C00F5FE7047A031000800000020DC01002022
:10122C00DC0100204C020020FEE7000070B5002518
:10123C000C4E0D4CA41BA410A54209D101F088FE44
:10124C0000250A4E0A4CA41BA410A54205D170BD62
:10125C0056F8253098470135EEE756F82530984773
:10126C000135F2E7983100089831000898310008F0
:10127C009C31000803460244934200D1704703F8A6
:10128C00011BF9E70FB40A4B13B51C6824B1A36911
:10129C0013B9204600F0FCFA05AB049AA16820466D
:1012AC00019300F0D9FC02B0BDE8104004B07047C7
:1012BC000C00002070B50E46054618B183690BB9B9
:1012CC0000F0E6FAAB69AC6813B9284600F0E0FA16
:1012DC00234B9C4217D16C68A3891B071DD523692E
:1012EC00DBB1013EA36816F8011F013BA360E9B90D
:1012FC00002B2EDA22460A21284600F005F901308F
:10130C0011D00A2070BD174B9C4201D1AC68E3E7A9
:10131C00154B9C4208BFEC68DEE72146284600F0DE
:10132C0045F90028DDD04FF0FF3070BD002B04DAFA
:10133C00A269934206DB0A2904D023685A1C226056
:10134C001970CFE72246284600F0DEF80130C9D1EB
:10135C00E9E70A2023685A1C2260187070BD00BF90
:10136C00FC2F00081C300008DC2F0008024B014643
:10137C001868FFF79FBF00BF0C0000200FB40A4B8A
:10138C0013B51C6824B1A36913B9204600F080FA88
:10139C0005AB049A61682046019301F05FF802B036
:1013AC00BDE8104004B070470C0000202DE9F74355
:1013BC001D46514B04461E680F46904626B1B36934
:1013CC0013B9304600F064FA4C4B9C4252D174680D
:1013DC00B8F1020F06D0B8F1010F00F28980002D90
:1013EC00C0F286802146304600F0D6F9616B41B1DF
:1013FC0004F14403994202D0304600F05BFB002319
:10140C0063630023A3616360A3891B0603D5216971
:10141C00304600F04FFBA389B8F1020F23F44A6366
:10142C0023F00303A3815DD001AB6A46214630460D
:10143C0000F0D4FAA3891843A0812DBB009D284647
:10144C0000F030FB074600284ED1DDF80090A9458E
:10145C003CD14FF0FF30A38943F00203A38100235A
:10146C00A36004F14703236023610123636103B08C
:10147C00BDE8F083224B9C4201D1B468A8E7214B14
:10148C009C4208BFF468A3E7002FD8D0B36913B906
:10149C00304600F0FDF9B8F1010F08BFA3892760B1
:1014AC0004BF43F00103A381A389276113F0080053
:1014BC0065611BD013F001004FF000031FBF6D429C
:1014CC00A360A561184608BFA560D0E7484600F0A8
:1014DC00E9FA07460028BCD0A3894D4643F08003A7
:1014EC00A381D3E70020B6E7A946F5E7A060BEE7E5
:1014FC004FF0FF30BBE700BF0C000020FC2F0008B2
:10150C001C300008DC2F0008F8B50E4614460546C2
:10151C0018B183690BB900F0BBF9214B9C422AD15D
:10152C006C68A369A360A3891A072ED5236963B3DA
:10153C0023692068F6B2C01A63693746984204DB07
:10154C002146284600F028F928BBA3680130013B4E
:10155C00A36023685A1C22601E706369984204D0F1
:10156C00A389DB0719D50A2E17D12146284600F08E
:10157C0013F990B10FE00B4B9C4201D1AC68D0E752
:10158C00094B9C4208BFEC68CBE72146284600F08B
:10159C000DF80028CCD04FF0FF373846F8BD00BF0F
:1015AC00FC2F00081C300008DC2F0008324B70B5F3
:1015BC001D6806460C4625B1AB6913B9284600F0E8
:1015CC0067F92E4B9C420FD16C68B4F90C309AB26F
:1015DC0015072CD4D00611D40922326043F04003F5
:1015EC00A3814FF0FF3070BD254B9C4201D1AC68FC
:1015FC00EBE7244B9C4208BFEC68E6E7510712D599
:10160C00616B41B104F14403994202D0304600F0C1
:10161C0051FA00236363A38923F02403A3810023DD
:10162C00636023692360A38943F00803A3812369C2
:10163C004BB9A38903F42073B3F5007F03D0214683
:10164C00304600F0EFF9A28912F001030CD0002310
:10165C00A36063695B42A361236953B9B4F90C308D
:10166C0013F08000BAD170BD920758BF6369A360B4
:10167C00F2E70020F7E700BF0C000020FC2F000869
:10168C001C300008DC2F00088A892DE9F041054642
:10169C0010070C465AD44B68002B05DC0B6C002B46
:1016AC0002DC0020BDE8F081E66A002EF9D00023B0
:1016BC0012F480522F682B6033D0606DA3895A07C7
:1016CC0005D56368C01A636B0BB1236CC01A002379
:1016DC000246E66A216A2846B047431CA38906D114
:1016EC0029681D294BD82B4ACA40D60747D500225A
:1016FC0062602269D904226004D5421C01D12B6896
:10170C0003B96065616B2F600029CAD004F14403F2
:10171C00994202D0284600F0CDF900206063BDE864
:10172C00F081216A01232846B047411CC6D12B68A1
:10173C00002BC3D01D2B01D0162B01D12F60B0E78D
:10174C00A38943F04003A381BDE8F0810F69002F0A
:10175C00A7D0930718BF00230E6808BF4B69A6EBF0
:10176C0007080F608B60B8F1000F9ADD43463A46CC
:10177C00216A2846A66AB047002807DCA38943F0F3
:10178C004003A3814FF0FF30BDE8F0810744A8EB84
:10179C000008E8E70100402038B50B6905460C4607
:1017AC00DBB118B183690BB900F072F80C4B9C4299
:1017BC0009D16C68B4F90C307BB121462846BDE8E0
:1017CC003840FFF761BF074B9C4201D1AC68F1E791
:1017DC00054B9C4208BFEC68ECE7002038BD00BF0D
:1017EC00FC2F00081C300008DC2F0008014620B933
:1017FC00044B0549186800F0D3B8044B1868FFF780
:10180C00CBBF00BFD82F0008A51700080C00002084
:10181C00014900F0C5B800BFA5170008002310B59A
:10182C00044603604360836081814366C281036127
:10183C0043618361194608225C30FFF71BFD054BA1
:10184C0024626362044BA362044BE362044B236384
:10185C0010BD00BF1729000839290008712900089C
:10186C009529000870B568254A1E55430E4605F1AA
:10187C00740100F06BF9044640B1002180E842008D
:10188C000C30A06005F16802FFF7F4FC204670BD37
:10189C00836910B5044633BB8364C3640365124B80
:1018AC00124A1B688262984204BF0123836100F0D4
:1018BC001FF86060204600F01BF8A060204600F086
:1018CC0017F80022E06004216068FFF7A7FF0122EF
:1018DC000921A068FFF7A2FF02221221E068FFF79E
:1018EC009DFF0123A36110BDD82F00081D1800080F
:1018FC00F8B51C4B07461E68B36913B93046FFF7A1
:10190C00C7FF4836B4687368013B03D5336833B1FD
:10191C003668F7E7B4F90C506DB16834F4E704217C
:10192C003846FFF79FFF30600028F1D10C230446A6
:10193C003B602046F8BD4FF6FF73E38101236566DB
:10194C00A3812560A560656025616561A56108229C
:10195C00294604F15C00FFF78DFC6563A563A56463
:10196C00E564E6E7D82F00082DE9F041884600260B
:10197C0000F1480414B93046BDE8F081A5686768E9
:10198C00013F01D52468F5E7AB89012B06D9B5F9E0
:10199C000E30013302D02846C04706436835EFE7C6
:1019AC002DE9F84380468946002600F1480414B915
:1019BC003046BDE8F883A5686768013F01D5246807
:1019CC00F5E7AB89012B07D9B5F90E30013303D0FC
:1019DC0029464046C84706436835EEE770B50E46C3
:1019EC00B1F90E1090B0002914461D4607DA0023F9
:1019FC002B60B3891A0610D44FF480630EE001AA51
:101A0C0001F0B6F90028F2DB029A02F47042A2F55A
:101A1C0000535A425A412A60EEE7402300202360CB
:101A2C0010B070BD8B8973B59D0706460C4607D563
:101A3C0004F14703236023610123636102B070BD8D
:101A4C0001AB6A46FFF7CAFF00990546304600F025
:101A5C007DF848B9B4F90C309A05EFD423F00303A0
:101A6C0043F00203A381E3E70D4BB362A38920602B
:101A7C0043F08003A381009B20616361019B5BB1F8
:101A8C00B4F90E10304601F085F928B1A38923F082
:101A9C00030343F00103A381A3891D43A581CDE773
:101AAC001D180008024B0146186800F04FB800BF23
:101ABC000C00002038B50546002943D051F8043CF1
:101ACC000C1F002BB8BFE41801F0C3F91E4A1368B1
:101ADC00104633B9636014602846BDE8384001F005
:101AEC00B9B9A3420BD921686218934201BF1A6895
:101AFC005B685218226063600460EDE713465A6815
:101B0C000AB1A242FAD919685818A0420BD1206820
:101B1C000144581882421960DED1106852680144A1
:101B2C0019605A60D8E702D90C232B60D4E72068DF
:101B3C0021188A4201BF116852680918216062603D
:101B4C005C60C9E738BD00BFF801002070B5CD1C42
:101B5C0025F0030508350C2D38BF0C25002D064645
:101B6C0001DBA94203D90C233360002070BD01F0C6
:101B7C0070F9234A1468214691B9224C23681BB989
:101B8C00304600F083FE20602946304600F07EFE91
:101B9C00431C26D10C233046336001F05BF9E4E79B
:101BAC000B685B1B1AD40B2B0FD90B60CC18CD50C8
:101BBC00304601F04FF904F10B00231D20F0070013
:101BCC00C31A1BD05A42E25070BD8C420BBF6368E3
:101BDC004B681360636018BF0C46E9E70C46496814
:101BEC00CAE7C41C24F00304A04205D0211A3046D5
:101BFC0000F04CFE0130CDD02560D9E770BD00BFA0
:101C0C00F8010020FC010020936810B4013B002B6C
:101C1C00936008DA9469A34202DBCBB20A2B02D19F
:101C2C0010BCFFF771BC1368581C10601970C8B257
:101C3C0010BC7047F8B506460F461446D518AC4292
:101C4C0001D1002007E03A4614F8011B3046FFF79B
:101C5C00DBFF431CF3D1F8BD2DE9F04F9DB00C46D2
:101C6C0017460393064618B183690BB9FFF710FEAC
:101C7C007C4B9C4257D17468A38918075DD52369A6
:101C8C00002B5AD00023099320238DF829303023C0
:101C9C004FF0010B8DF82A30B846454615F8013B3C
:101CAC00002B55D1B8EB070A0BD053463A462146C8
:101CBC003046FFF7BFFF013000F0C480099B53444E
:101CCC00099398F80030002B00F0BC8000234FF0F3
:101CDC00FF3204930793059206938DF853301A93B1
:101CEC0005222978604801F09BF805F10108049B56
:101CFC00002831D1D90644BF20228DF853201A0771
:101D0C0044BF2B228DF853202A782A2A2CD000216C
:101D1C000A20079AA84698F800300135303B092B69
:101D2C006DD971B326E0514B9C4201D1B468A3E745
:101D3C004F4B9C4208BFF4689EE721463046FFF7A4
:101D4C0035FC00289ED04FF0FF301DB0BDE8F08F61
:101D5C00252BA7D0A846A0E7434A4546801A0BFA84
:101D6C0000F018430490BBE7039A111D126803910D
:101D7C00002A01DB079204E0524243F0020307926F
:101D8C00049398F800302E2B10D198F8013008F1FC
:101D9C0001012A2B37D1039B08F102081A1D1B687D
:101DAC000392002BB8BF4FF0FF330593314D032244
:101DBC0098F80010284601F033F840B14023401B3E
:101DCC0003FA00F0049B08F101080343049398F80C
:101DDC0000100622284808F101078DF8281001F0A0
:101DEC001FF8002834D0254B03BB039B073323F08B
:101DFC00070308330393099B4B4409934CE700FBFF
:101E0C000232012186E700230A25184605938846ED
:101E1C0098F800200131303A092A03D9002BC5D09B
:101E2C000590C3E705FB00200123F0E703AB00930B
:101E3C002246134B04A93046AFF30080B0F1FF3FAC
:101E4C008146D8D1A3895B063FF57DAF09987CE725
:101E5C0003AB009322460A4B04A9304600F08AF8E3
:101E6C00ECE700BFFC2F00083C3000081C300008D9
:101E7C00DC2F00084230000846300008000000004B
:101E8C00411C00082DE9F04791461F468A680B69F2
:101E9C0006469342B8BF1346C9F8003091F8432068
:101EAC000C46DDF8208012B10133C9F800302368EC
:101EBC00990642BFD9F800300233C9F800302568C2
:101ECC0015F0060507D104F1190AE368D9F80020CA
:101EDC009B1A9D422ADB94F843302268003318BFCA
:101EEC00012392062FD404F1430239463046C047F1
:101EFC00013022D02368E56803F00603042B18BFD9
:101F0C000025D9F800204FF0000908BFAD1AA368CE
:101F1C00226908BF25EAE5759342C4BF9B1AED18E8
:101F2C001A344D451BD10020BDE8F08701235246E1
:101F3C0039463046C047013003D14FF0FF30BDE881
:101F4C00F0870135C1E73020E11881F843005A1CB5
:101F5C0094F845102244023382F84310C3E701235E
:101F6C00224639463046C0470130E6D009F1010916
:101F7C00D7E700002DE9F04317460A7E85B06E2A9C
:101F8C00984606460C460C9B01F1430E00F0BC80B3
:101F9C001AD8632A2ED00AD8002A00F0C880582AF2
:101FAC0000F08A8004F1420584F842202AE0642A79
:101FBC0001D0692AF6D121681A6811F0800F23D05C
:101FCC00111D1960136827E0732A00F0B48008D83B
:101FDC006F2A2AD0702AE5D10A6842F020020A60E2
:101FEC0003E0752A21D0782ADCD178226F4984F855
:101FFC00452064E01A6801F14205111D196013684F
:10200C0084F842300123A3E011F0400F02F10401E7
:10201C001960D7D0B2F90030002B03DA2D225B42C5
:10202C0084F8432062490A2217E02068196810F0EE
:10203C00800F03D0081D18600B6806E010F0400FED
:10204C0001F104001860F7D00B886F2A14BF0A2224
:10205C0008225749002084F843006568002DA560CC
:10206C00C0F29C80206820F004002060002B3FD13F
:10207C00002D40F095807546082A0BD12368DA07AD
:10208C0008D5236962689A42DEBF302305F8013C0B
:10209C0005F1FF35AEEB05032361CDF800803B461F
:1020AC0003AA21463046FFF7EDFE013055D14FF023
:1020BC00FF3005B0BDE8F08381F845203C4922682B
:1020CC00186812F0800F00F104051D6001D0036840
:1020DC0002E05506FBD50388D00744BF42F020022E
:1020EC0022601BB9226822F0200222601022B1E784
:1020FC007546B3FBF2F002FB1033CB5C05F8013DE7
:10210C0003460028F5D1B7E708681A6810F0800F6D
:10211C00496904D0101D18601368196007E010F0AD
:10212C00400F02F1040018601368F6D019800023E8
:10213C0075462361B1E71A68111D196015680021F5
:10214C006268284600F06CFE08B1401B6060636852
:10215C002361002384F843309FE723692A463946DC
:10216C003046C0470130A2D023689B0707D5002515
:10217C0004F11909E368039A9B1A9D4205DBE06898
:10218C00039B9842B8BF184693E701234A46394649
:10219C003046C04701308AD00135EBE7002BA7D180
:1021AC000B7804F1420584F8423065E75E30000894
:1021BC004D3000082DE9F04FADF5257D019300233E
:1021CC0006460C4692460A27469347939F4B0DF1C1
:1021DC000C08A2939E4BDFF87C92CDF82081A39340
:1021EC009AF80030002B00F02F8100F0E7FD9AF8F0
:1021FC0000B05844437813F0080343D1BBF1250FCA
:10220C000AF1010540F09980459343939AF8013007
:10221C002A2B03D110230AF1020543932978AA46ED
:10222C00A1F13002092A05F1010541D9032289489F
:10223C0000F0F6FD38B1A0EB09030120AA46984046
:10224C00439B184343909AF800300AF10105672B21
:10225C004AD8652B80F0B780472B2FD8452B80F0C0
:10226C00B280002B00F08280252B66D0032344978C
:10227C00499345E0479901330131479161682360E7
:10228C00013961606368002B0BDD00F097FD23685A
:10229C001978084441780D07ECD40AF10105AA46D7
:1022AC009EE7A39B2146304698470028EDD0F4E7E3
:1022BC00459B07FB0313303B4593AFE75B2B61D08A
:1022CC000CD8582BD2D1439A42F40072439210226C
:1022DC0044926F2BB4BF0323042310E0632B5CD018
:1022EC00642BC3D14497F4E7702B42D01DD86E2BCE
:1022FC0059D043D8692BB9D1002344930323499374
:10230C006368002B61DD439B59066FD5499B022BFB
:10231C007CDC01AB224643A9304600F0C7F801280B
:10232C0000F092800228BAD11DE0752BDAD0782B00
:10233C00C9D0732B9AD10223E1E76368002B0CDD23
:10234C0023681A7893457FD1013362682360479BD9
:10235C00013A013362604793A1E7A39B21463046C3
:10236C0098470028ECD04698002863D14FF0FF30F6
:10237C0066E0439A42F020024392A4E70823449378
:10238C000423BCE72946404600F090FA439B0546DF
:10239C0043F0400343930123B1E7439B43F04003D5
:1023AC0043930023ABE7439AD0063FF578AF12F086
:1023BC00010F019A479B02F104010191126814BFAD
:1023CC00138013606BE7052399E7A39B21463046E6
:1023DC009847002897D0C6E7479A0132479262681F
:1023EC00013A002A62600ADD0133236000F0E6FC4A
:1023FC0023681A78104442781207EDD486E7A39B21
:10240C002146304698470028F0D0ACE7042B06DC78
:10241C0001AB224643A9304600F0ACF87FE70E4BE7
:10242C00002B3FF43CAF01AB224643A93046AFF33F
:10243C00008074E7A38913F0400F18BF4FF0FF30F2
:10244C000DF5257DBDE8F08F4698F9E7552C000871
:10245C008127000842300008000000002DE9F041FF
:10246C000C4616461F46054618B183690BB9FFF793
:10247C000FFA0B4B9C4208D16C683B463246214606
:10248C002846BDE8F041FFF795BE064B9C4201D1B2
:10249C00AC68F2E7044B9C4208BFEC68EDE700BF68
:1024AC00FC2F00081C300008DC2F00082DE9F0413F
:1024BC0015468A6880460C4632B98A69002A0CBFD8
:1024CC0001224FF0FF328A6000262268D1065FBFDE
:1024DC001A68111D19601768A369DBB1012B07D1AC
:1024EC002B6862691B78D35CA3B9002E31D106E04E
:1024FC00022B07D0002E2CD1A369012B29D101204E
:10250C00BDE8F08100F05AFC2B681B781844437826
:10251C001B07EFD423680136DA065EBF2B681B78E5
:10252C003B702A686B6802F101022A60A26803F111
:10253C00FF3302F1FF326B6058BF0137A26042B12A
:10254C00002BC9DCD4F88031294640469847002836
:10255C00C2D0236813F0100305D1E2680132E260A7
:10256C00A26902B13B70236900201E442661BDE8BC
:10257C00F08100002DE9F04F0C469A46744B87B061
:10258C008346164693E8070003ABA76883E8070069
:10259C00704BA169704A04F11C09032918BF1A4633
:1025AC007B1EB3F5AE7F84BF40F25D13A36023683E
:1025BC0088BF6FF4AE7543F45063236098BF002757
:1025CC004B464FF00008009288BF7F193168019389
:1025DC0003AB53F828000222097800F021FC019B80
:1025EC0028B3B8F1010F56D162682AB9082262608B
:1025FC00226842F400722260226822F4A0622260F7
:10260C00A268511EA16092B132685D1C511C3160F0
:10261C0012781A707368013B002B736006DCD4F8D7
:10262C008031314658469847002877D12B4608F11F
:10263C000108B8F1030FC9D162680AB90A226260B5
:10264C00626846496069891A019300F02FF9019B71
:10265C004FF000081D46A368002B39D03168606923
:10266C000A78805C002833D0302A226821D11005EA
:10267C001FD508F1010817B10133013FA36073683E
:10268C00013B002B73601CDD336801333360A3689E
:10269C00013BA360DFE7B8F1020FB1D1226802F46D
:1026AC00C061B1F5007FC2D1102142F4807261602B
:1026BC00A5E722F4106222600B78013505F8013C85
:1026CC00DDE7D4F880313146584698470028DED0F3
:1026DC002368D9050CD54D4508D915F8011C6F1E7A
:1026EC00D4F87C313246584698473D464D452CD05F
:1026FC00226812F010021ED12A70636849465846AF
:10270C00009EB0472268DAF8003012F0200F08D093
:10271C001A1DCAF800201B68186009E04FF0000869
:10272C00D6E7D207F4D51A1DCAF800201B6818800A
:10273C00E3680133E3600020A5EB0905A844256993
:10274C004544256107B0BDE8F08F0120FAE700BFD2
:10275C00842F0008BD2B00089D2A00087F3000083C
:10276C00838903F00903092B01D1FFF73FB800203F
:10277C0070470000F8B50C46054618B183690BB9D3
:10278C00FFF786F83C4B9C420AD16C680023B4F9E5
:10279C000C20636093B29E060CD54FF0FF30F8BD51
:1027AC00364B9C4201D1AC68F0E7354B9C4208BFDC
:1027BC00EC68EBE7580749D4D90605D4092342F055
:1027CC0040022B60A281E8E71A070BD52146284668
:1027DC00FEF7E2FF0028E0D1A389A06023F00803F4
:1027EC00A381A061A38943F00403A38123691BB9CE
:1027FC0021462846FFF716F9B4F90C70BEB2B307A0
:10280C000FD00123A3811F4B1F49186806F009063E
:10281C00FFF7AAF8092EA78103D121462846FEF717
:10282C0033FF2269666A22606369216A2846B047D1
:10283C00002860601DDC18BF0022A38916BF6260EF
:10284C0043F0200343F04003A381A6E7616B00290A
:10285C00CCD004F14403994202D02846FFF72AF960
:10286C000020236C60636360002BBFD0E36B23609C
:10287C00F8BD0020F8BD00BFFC2F00081C3000087C
:10288C00DC2F0008D82F00086D27000838B500236E
:10289C00054C05460846236000F04CFB431C02D156
:1028AC00236803B12B6038BD4802002070B50B784B
:1028BC00441E5E2B13BF4A1C8A1C4B78002108BF98
:1028CC00012100F1FF0504F8011FA542FBD113B94A
:1028DC00013A104670BD81F001041146C4540D78C4
:1028EC004A1C2D2D06D05D2DF3D00DB90A46F0E70C
:1028FC002B46F2E74E785D2EFAD0B342F8DC02316B
:10290C0001339E42C454FBDCE9E710B50C46B1F927
:10291C000E1000F0C7FA0028ABBF636DA3891B181B
:10292C0023F48053ACBF6365A38110BD2DE9F04146
:10293C001F468B890546DB050C46164605D502233A
:10294C000022B1F90E1000F047FAA389324623F4A5
:10295C008053A381B4F90E103B462846BDE8F041E4
:10296C0000F0E4B910B50C46B1F90E1000F034FAD1
:10297C00431CA38915BF606523F4805343F4805333
:10298C00A38118BFA38110BDB1F90E1000F0E0B9FE
:10299C002DE9F84F8046894692461F468B465D4688
:1029AC000A9815F8014B00F005FA2044467816F009
:1029BC0008060BD12D2C0BD101262C780BF102051E
:1029CC0067B1102F14D1302C0AD011E0AB46E6E7DA
:1029DC002B2C04BF2C780BF10205F1E7302C27D1FE
:1029EC002B7803F0DF03582B4BD110276C78023572
:1029FC00002E0CBF6FF000414FF000410022B1FBE4
:102A0C00F7FE104607FB1E1CA4F13003092B11D84E
:102A1C001C46A7421DDD531C07D0864516D301D199
:102A2C00A44513DB012200FB074015F8014BEBE733
:102A3C000A27DDE7A4F14103192B01D8373CE8E75D
:102A4C00A4F16103192B04D8573CE2E74FF0FF3295
:102A5C00EBE7531C08D122230846C8F80030BAF122
:102A6C00000F07D1BDE8F88F06B14042BAF1000F54
:102A7C000CD022B1013DCAF80050BDE8F88F4D468C
:102A8C00F9E73024002FB3D10827B1E7BDE8F88F60
:102A9C0037B5064C064D2468246A002C08BF2C461A
:102AAC000094FFF775FF03B030BD00BF0C00002091
:102ABC00700000202DE9F0478046894692461E465C
:102ACC000F463D46089815F8014B00F073F9204469
:102ADC00437813F008030AD12D2C0AD101232C784A
:102AEC00BD1C5EB1102E13D1302C09D010E02F4636
:102AFC00E7E72B2C04BF2C78BD1CF2E7302C25D13A
:102B0C002A7802F0DF02582A4AD110266C78023556
:102B1C004FF0FF31B1FBF6F1002706FB01FE384602
:102B2C006FEA0E0EA4F13002092A11D81446A642FF
:102B3C001DDD002F18DB814216D301D1A64513DB16
:102B4C00012700FB064015F8014BEBE70A26DFE7EF
:102B5C00A4F14102192A01D8373CE8E7A4F161023B
:102B6C00192A04D8573CE2E74FF0FF37EBE7002F68
:102B7C0009DA22234FF0FF30C8F80030BAF1000F09
:102B8C0007D1BDE8F08703B14042BAF1000F0CD079
:102B9C0027B1013DCAF80050BDE8F0874D46F9E772
:102BAC003024002EB4D10826B2E7BDE8F08700002F
:102BBC0037B5064C064D2468246A002C08BF2C46F9
:102BCC000094FFF777FF03B030BD00BF0C0000206E
:102BDC00700000202DE9F0410C46496B04F14403D0
:102BEC0099421CD14FF48061FEF7B0FF18B94FF039
:102BFC00FF30BDE8F0814FF48063A36394F8463056
:102C0C00606380F8FF3394F8453000F2FD30437078
:102C1C0094F84430037020600020BDE8F081A66B6E
:102C2C0077003A4600F017F905460028DFD000EB94
:102C3C00060801463246404600F000F9C4F8008010
:102C4C006563A763E8E700004B1C70B506460D46AC
:102C5C00144603D14FF0FF35284670BD18B1836977
:102C6C000BB9FEF715FE2E4B9C422CD17468B4F9AF
:102C7C000C3023F02003A3819BB2590713D4DA063E
:102C8C00E8D51B070BD521463046FEF785FD0028FD
:102C9C00E0D1A389A06023F00803A381A061A389DC
:102CAC0043F00403A381636BEDB26268E3B1A36BE1
:102CBC009A4212DA23685A1E226003F8015C636898
:102CCC0001336360C8E7174B9C4201D1B468CEE76F
:102CDC00154B9C4208BFF468C9E721463046FFF704
:102CEC0079FF0028E6D0B5E72169236851B19942F4
:102CFC0008D213F8011C8D4204D1013B0132236030
:102D0C006260A9E7E36304F1440363630323A363F1
:102D1C002346226403F8465F23600123D1E700BFFA
:102D2C00FC2F00081C300008DC2F000838B50546C5
:102D3C00084611460022054C22601A46FEF718F987
:102D4C00431C02D1236803B12B6038BD480200201C
:102D5C0038B50023054C05460846236000F0CAF838
:102D6C00431C02D1236803B12B6038BD48020020FC
:102D7C0038B50023064C054608461146236000F082
:102D8C00C1F8431C02D1236803B12B6038BD00BFCE
:102D9C004802002038B50023054C05460846236040
:102DAC0000F0B8F8431C02D1236803B12B6038BD86
:102DBC0048020020D0F8EC0070470000044B054A94
:102DCC001B681B6A002B08BF1346D3F8EC00704736
:102DDC000C0000207000002038B50546084611464E
:102DEC000022054C22601A4600F09CF8431C02D1CC
:102DFC00236803B12B6038BD4802002082B001B9B2
:102E0C0001A942B14BB113780B601278101C18BF9A
:102E1C00012002B070471046FBE76FF00100F8E7A5
:102E2C0010B5C9B202449042034601D1002010BD36
:102E3C001C7801308C42F6D1184610BD10B5431EDB
:102E4C000A44914200D110BD11F8014B03F8014F17
:102E5C00F7E770477047F8B5074614460E4621B998
:102E6C001146BDE8F840FEF771BE22B9FEF722FE0E
:102E7C0025462846F8BD00F034F884420FD9214687
:102E8C003846FEF763FE05460028F2D0314622464E
:102E9C00FFF7D4FF31463846FEF70CFEE9E735461E
:102EAC00E7E7000038B50546084611460022054CF8
:102EBC0022601A46FEF76CF8431C02D1236803B15A
:102ECC002B6038BD4802002049B1FF2A8BBF8A23F2
:102EDC000A700360012088BF4FF0FF30704708462E
:102EEC00704751F8040C0028A0F10400BCBF0B582B
:102EFC00C01870475822024B4FF0FF301A607047D1
:102F0C00480200205822024B4FF0FF301A607047E5
:102F1C00480200205822024B00201A60704700BF64
:102F2C00480200205822024B4FF0FF301A607047C5
:102F3C0048020020044B0246196809B9034919607C
:102F4C00186802441A607047000200204C020020EE
:102F5C00F8B500BFF8BC08BC9E467047F8B500BF7A
:082F6C00F8BC08BC9E4670474A
:102F740002030405060708090A0B0C0D0E0F1010B6
:102F8400813000088430000887300008706C656167
:102F940073652074797065206F6E6C79206E756D21
:102FA4006265722E0D002564006E756D6265722077
:102FB40069732025642E0D0A000000000000000043
:102FC40000010203040607080900000000010203CF
:102FD40004000000100000200000000000000000B9
:102FE40000000000000000000000000000000000DD
:102FF40000000000000000000000000000000000CD
:1030040000000000000000000000000000000000BC
:1030140000000000000000000000000000000000AC
:10302400000000000000000000000000000000009C
:103034000000000000000000232D302B2000686CED
:103044004C006566674546470030313233343536C7
:103054003738394142434445460030313233343500
:103064003637383961626364656600412D46612DE7
:1030740066383930313233343536375D002B2D0024
:103084003030007858004300504F534958002E0008
:103094000020202020202020202028282828282024
:1030A400202020202020202020202020202020201C
:1030B4002088101010101010101010101010101084
:1030C4001004040404040404040404101010101074
:1030D400101041414141414101010101010101013E
:1030E4000101010101010101010101011010101090
:1030F4001010424242424242020202020202020210
:103104000202020202020202020202021010101063
:10311400200000000000000000000000000000008B
:10312400000000000000000000000000000000009B
:10313400000000000000000000000000000000008B
:10314400000000000000000000000000000000007B
:10315400000000000000000000000000000000006B
:10316400000000000000000000000000000000005B
:10317400000000000000000000000000000000004B
:10318400000000000000000000000000000000003B
:043194000000000037
:0431980031010008F9
:04319C000D01000819
:1031A000010000001000000000A24A0410000020EE
:1031B00000000000FC2F00081C300008DC2F000875
:1031C00000000000000000000000000000000000FF
:1031D00000000000000000000000000000000000EF
:1031E00000000000000000000000000000000000DF
:1031F00000000000000000000000000000000000CF
:1032000000000000000000000000000000000000BE
:10321000430000000000000000000000000000006B
:10322000000000000000000000000000000000009E
:10323000430000000000000000000000000000004B
:10324000000000000000000000000000000000007E
:10325000430000000000000000000000000000002B
:10326000000000000000000000000000000000005E
:10327000430000000000000000000000000000000B
:10328000000000000000000000000000000000003E
:1032900043000000000000000000000000000000EB
:1032A000000000000000000000000000000000001E
:1032B00043000000000000000000000000000000CB
:1032C00000000000000000000000000000000000FE
:1032D00043000000000000000000000000000000AB
:1032E00000000000000000000000000000000000DE
:1032F000D52E0008092E00080000000094300008B8
:1033000092300008BC2F0008BC2F0008BC2F00081A
:10331000BC2F0008BC2F0008BC2F0008BC2F0008E1
:10332000BC2F0008BC2F0008FFFFFFFFFFFFFFFFBF
:10333000FFFFFFFFFFFF0000010041534349490029
:10334000000000000000000000000000000000007D
:103350000000000000000000000041534349490004
:10336000000000000000000000000000000000005D
:0C33700000000000000000000000000051
:04000005080011EDF1
:00000001FF
